:020000040800F2
:10000000E8440020E10100089F410008AF3B0008E0
:100010009D410008591500082B5F000800000000F2
:1000200000000000000000000000000091450008F2
:10003000A916000800000000B54400089345000818
:10004000FB010008FB010008FB010008FB010008A0
:10005000FB010008FB010008FB010008FB01000890
:10006000FB010008FB010008FB0100084516000821
:10007000FB010008FB010008FB010008FB01000870
:10008000FB010008FB01000869140008FB010008DF
:10009000B55E0008FB010008FB010008FB01000839
:1000A000FB01000889460008FB010008FB0100086D
:1000B000FB010008FB010008FB010008FB01000830
:1000C000FB010008FB010008FB010008FB01000820
:1000D000FB010008FB010008FB010008FB01000810
:1000E000FB010008FB010008FB01000800F002F81A
:1000F00000F067F80AA090E8000C82448344AAF15B
:100100000107DA4501D100F05CF8AFF2090EBAE858
:100110000F0013F0010F18BFFB1A43F0010318473B
:1001200084830000A48300000A444FF0000C10F800
:10013000013B13F0070408BF10F8014B1D1108BF65
:1001400010F8015B641E05D010F8016B641E01F805
:10015000016BF9D113F0080F1EBF10F8014BAD1C55
:100160000C1B09D16D1E58BF01F801CBFAD505E073
:1001700014F8016B01F8016B6D1EF9D59142D6D3CD
:10018000704700000023002400250026103A28BFF5
:1001900078C1FBD8520728BF30C148BF0B607047F9
:1001A000662907F01687002070471FB500F01AFC7B
:1001B00004000020002106F065FEE0601FBD10B5C0
:1001C00010BD00F013FD1146FFF7EFFF06F01AF91E
:1001D00000F031FD03B4FFF7F2FF03BC00F074FD43
:1001E0000948804709480047FEE7FEE7FEE7FEE7CB
:1001F000FEE7FEE7FEE7FEE7FEE7FEE70448054907
:10020000054A064B7047000013460008ED00000841
:10021000E8340020E8440020E83C0020E83C0020CE
:100220000FB41CB5074B06AA7B446946009005989D
:1002300000F0BFFB0020694600F0CEFB1CBC5DF85F
:1002400014FB0000AD0700002DE9F0474FF0000A55
:1002500089460446C0F820A02046E1688847002867
:1002600076D0252806D0D4E901219047206A401C89
:100270002062F1E7E168204600258847C4F81CA009
:1002800006460027C4F818A02A2E09D0304605F0EB
:10029000D3FE38B304EB8708303EC8F8186019E085
:1002A00059F8041B204604EB87029161E1688847F6
:1002B000012F064618D1E069002820DA25F0200534
:1002C0001DE0D8F8180000EB800006EB4000303845
:1002D000C8F818002046E1688847064605F0ACFEDD
:1002E0000028EED1012F0AD02E2E08D12046E16839
:1002F00088477F1C0646022F45F02005C4DBA06915
:10030000002803DA404245F00105A061E80701D06A
:1003100025F01005B6B1A6F14100192802D8203603
:1003200045F400654A463146204625604D46FFF7B4
:1003300037FF58B1012806D0ED1D25F0070000F168
:10034000080989E704E005F1040985E730468AE7F2
:10035000206ABDE8F08740EA010370B59B072ED103
:100360004FF00136042A2AD308C810C99D1B9D43AB
:10037000121F15EAC61517D0D8B2E1B2401A50EADA
:10038000056110D198B2A1B2401A50EA05410AD1D4
:1003900023F07F4024F07F41401A50EA052102D12A
:1003A000180EA0EB146070BDA342DBD018BA21BABE
:1003B000884201D9012070BD4FF0FF3070BD0AB9ED
:1003C000002070BD10F8013B11F8014B63B1A3424E
:1003D0000AD1521E08D010F8013B11F8014B1BB195
:1003E000A34201D1521EEDD1181B70BD032A40F269
:1003F000308010F0030C00F0158011F8013BBCF1C7
:10040000020F624498BF11F801CB00F8013B38BFDE
:1004100011F8013BA2F1040298BF00F801CB38BFEC
:1004200000F8013B11F0030300F02580083AC0F00A
:10043000088051F8043B083A51F804CBA0E80810B2
:10044000F5E7121D5CBF51F8043B40F8043BAFF3E5
:100450000080D20724BF11F8013B11F801CB48BF3F
:1004600011F8012B24BF00F8013B00F801CB48BF75
:1004700000F8012B704710B5203AC0F00B80B1E8AE
:100480001850203AA0E81850B1E81850A0E81850C9
:10049000BFF4F5AF5FEA027C24BFB1E81850A0E8D2
:1004A000185044BF18C918C0BDE810405FEA827CEC
:1004B00024BF51F8043B40F8043B08BF7047D20703
:1004C00028BF31F8023B48BF11F8012B28BF20F8A4
:1004D000023B48BF00F8012B70474FF0000204298F
:1004E000C0F0128010F0030C00F01B80CCF1040C63
:1004F000BCF1020F18BF00F8012BA8BF20F8022B97
:10050000A1EB0C0100F00DB85FEAC17C24BF00F83C
:10051000012B00F8012B48BF00F8012B70474FF06A
:10052000000200B5134694469646203922BFA0E843
:100530000C50A0E80C50B1F12001BFF4F7AF09074F
:1005400028BFA0E80C5048BF0CC05DF804EB890040
:1005500028BF40F8042B08BF704748BF20F8022B83
:1005600011F0804F18BF00F8012B7047704770479B
:10057000704710B500F03AFA006810BD10B5044697
:1005800000F034FA046010BD70472DE9FF4F0C46AF
:100590001E464FF0FF378BB0D2E90001DDF86080D6
:1005A0000A908A46C1F30A5505B93D46002108461E
:1005B0004FF00000BAF1000F00F4400005DA00EB44
:1005C00080004FF4400101EA50004FEA9059B9F120
:1005D000010F00DDB9460A9850EA4A000ED044F6F1
:1005E0001050A5F2FF3545432F14B8F1000F1ED06F
:1005F0007542291E1EDDC9F100021CE0B8F1010F91
:100600004FF0000001D0302103E0F24305E0215417
:10061000401CB042FBDB30460022002121540B99E4
:10062000C1F80880C1E900200FB0BDE8F08FBD1B04
:100630006D1CDEE74A4600DA694206A800F060FA5F
:1006400006AB93E8070003AB83E8070050460A991E
:1006500000F041FB8DE80700A0F500501F38009026
:100660000398002D0ADD42F21F014A460844002388
:1006700003A90390684600F0AAFD09E0A0F5005028
:100680004A461F38002303A90390684600F0B4FDD2
:100690008DE807000004000C03D04FF0FF30410844
:1006A00000E01046B8F1000F03D00022009215467A
:1006B0001EE0751E05D400F09DF9303262556D1EA6
:1006C000F9D5B3460122084302D000227F1C04E082
:1006D0002078302801D100227F1E002A099784D07B
:1006E0001DE0112D07DA00F085F9303262556D1CDE
:1006F00050EA0102F5D1084302D00098C8B10EE0DB
:100700000021681E05E0235C625C63542254401E95
:10071000491C8142F7DBAB46A81B401E0990002014
:1007200004F80B000B98099AC0F80880C0E9002B68
:100730007AE711264FF0000857E72DE9F04F884679
:100740000446D21D22F0070191B0D1E90001CDE9A4
:100750000A0105F0EBFB02460B98C00F01D02D20DB
:1007600007E02068810701D52B2002E0202101EA63
:10077000C000032A099001D0072A05DB0346414641
:10078000204600F07DF90BE12078800601D5E06974
:1007900000E00620B8F1650F814606D0B8F1660F7B
:1007A00018D0B8F1670F70D131E00020B9F1110F06
:1007B000009001DB112301E009F101030AAA01A95C
:1007C0000CA8FFF7E2FEDDE90C70002609F1010537
:1007D000834647E001204B4600904FF000470AAAAD
:1007E00001A90CA8FFF7D1FEDDE90DB00C995D461B
:1007F000002610B909F101000D18B9EB050003D46A
:10080000C0F1FF3609F10105A5EB09002BE0B9F1B4
:10081000010F01DA4FF001090020B9F1110F00902A
:10082000484601DD112300E003460AAA01A90CA8ED
:10083000FFF7ABFEDDE90C704D46002683462078BD
:1008400000070AD4AB4500DA5D4601A8012D04DD9E
:10085000411911F8011C302907D04F4502DA17F170
:10086000040F04DA012082460FE06D1EEEE7002F30
:1008700002DCED1B3E4403E0781CA84200DD7D1C39
:10088000B81B00F1010A4FF000472078000703D49D
:10089000AA4501DB4FF0FF3A0021B7F1004F0DF1FF
:1008A00043088DF8431024D002202B23002F01DAB7
:1008B0007F422D230A21021EA0F1010000DC5FB15E
:1008C00097FBF1FC97FBF1F201FB1C7C17460CF146
:1008D000300C08F801CDEEE7A8F101000370218883
:1008E000090501D5452100E06521A0F1010800F8C6
:1008F000011C09980FA9A1EB0807FF1D00B10120F9
:10090000411901EBEA70A1693844081A401EA06140
:100910002078C00602D42046AFF30080099828B1A1
:10092000D4E901219047206A401C20622078C0064B
:1009300022D52046AFF300801EE0002E04DBB34535
:1009400002DD01A8805D00E03020D4E9012190475C
:10095000206A401C2062761CAAF101005FEA000AAE
:100960000AD100F03FF8C0680168405CD4E9012179
:100970009047206A401C2062281EA5F10105DCDC9E
:1009800007E0D4E9012118F8010B9047206A401CC8
:100990002062381EA7F10107F3DC2046AFF3008088
:1009A000032011B041E6000001694A1C0261087889
:1009B000704700B58FB0CDE901310021059105499F
:1009C0007944CDE9031011466846FFF73DFC0FB0AE
:1009D00000BD0000E5FFFFFF0A6802F8010B0A6096
:1009E0007047000000487047A4340020004870475A
:1009F0008434002030B5B0F10A024FEA900E71F154
:100A000000034EEA817EB0EB0E0061EB91014FEAEC
:100A1000101E4EEA017E10EB0E0041EB11114FEA61
:100A2000102E4EEA016E10EB0E0041EB11214FEA41
:100A3000104E4EEA014E10EB0E0041EB11414018F2
:100A400041F100014FEAD00040EA41704FEAD10184
:100A500010EB80054FEA810444EA907444EB0104F2
:100A60006D1944EB0404521BA3414FF0000348BF2F
:100A70000A3200D530BD401C41F1000130BD0000FC
:100A80002DE9F0411F46044603260168072A01F4B8
:100A9000006004DB08B116A505E016A503E008B167
:100AA00015A500E015A521F010002060A069C01E6A
:100AB000A0610FB1401EA0612046AFF300804FB18E
:100AC000D4E9012138469047206A401C2062C01CAE
:100AD000206206E0206AFAE7D4E9012115F8010B4B
:100AE0009047761EF8D22046AFF30080BDE8F08133
:100AF0004E414E006E616E00494E4600696E6600C2
:100B00002DE9F047814616468AB0354878440DC82D
:100B10008DE80D0032487844801C03AC0DC884E891
:100B20000D0041F69B300844372190FBF1F290FB19
:100B3000F1F5A5F1800501FB12041B3C02D56442CE
:100B4000012000E00020DFF898A080460027FA444A
:100B5000AAF1BE0A0EE0E0070AD03246684607EB6B
:100B6000470101230AEB810100F046FB8DE80700F5
:100B700064107F1C002CEED1194F7F44AE3F19E06A
:100B8000E80715D007EB04100DF1180A90E80E00E5
:100B90008AE80E00C068F04201D1981908903246E8
:100BA000012306A903A800F027FB03AB83E8070095
:100BB0006D10641C002DE3D14FF0010332466946ED
:100BC000B8F1000F03A802D000F001FB01E000F033
:100BD00013FBC9E90001C9F808200AB0BDE8F08795
:100BE0007C79000000487047843400207546FFF788
:100BF000F9FFAE4605006946534620F007008546DA
:100C000018B020B5FFF7FAFABDE820404FF0000613
:100C10004FF000074FF000084FF0000B21F00701E4
:100C2000AC46ACE8C009ACE8C009ACE8C009ACE827
:100C3000C0098D46704710B50446AFF300802046CA
:100C4000BDE81040FFF7C6BA4FF0013C50F8042B46
:100C500051F8043B9A4221D1A2EB0C03934313EACF
:100C6000CC1317D150F8042B51F8043B9A4215D1FC
:100C7000A2EB0C03934313EACC130BD150F8042BD3
:100C800051F8043B9A4209D1A2EB0C03934313EAB7
:100C9000CC13DBD04FF00000704700BFD01A01BA70
:100CA000B1FA81F101F0180122FA01F0CB40C1F153
:100CB0002001DBB2C0B2C01A2CFA01F3D11A914361
:100CC00011EAC311E6D1704701491820ABBEFEE717
:100CD0002600020070475FEA400C08BF91F0000F49
:100CE0004FEA8C234FEAC12243EA51514FEA1C508C
:100CF00018BF00F5F0404FEA300018BF41F0004146
:100D00005FEA6C5C00F02980BCF1FF3F08BF40F057
:100D100080407047130C06BF12044FF0100C4FF0C8
:100D2000000C130E04BF12020CF1080C130F04BFC9
:100D300012010CF1040C930F04BF92000CF1020C91
:100D4000D30F04BF52000CF1010C11464FF000020A
:100D5000A0F11F00A0EB0C00704711F0004F08BF7E
:100D6000704731F000413FF4D5AF0B0C06BF0904CA
:100D70004FF0100C4FF0000C0B0E04BF09020CF1E9
:100D8000080C0B0F04BF09010CF1040C8B0F04BFFE
:100D900089000CF1020CCB0F04BF49000CF1010CCF
:100DA000CCF12003A0EB0C0022FA03F302FA0CF2C0
:100DB00041EA030100F10100704720F07F4C80EA16
:100DC000030023F07F47ACEB070303F57C5300F0EF
:100DD000004003F1FF032DE980494FEA154B09B4A8
:100DE0004FEA144325EA0B4E24EA03480FF2042687
:100DF00006EB132749083E785FEA320203FB0667D9
:100E0000C7F5000707FB06F64FEA54374FEAD64608
:100E100006F1020607FB066CCCF1005C4FEA1C47AA
:100E20002CEA074C07FB06F40CFB06F504EB154611
:100E30004FEA961634BF00204FF000404FEAD137FA
:100E400006FB07FC4FEA1C4C0CFB0BF7D21B03FB09
:100E50000CF761EB07010CFB0EF7B0EB074072EBF0
:100E600017420CFB08F734BFA2EB0742B2EB074274
:100E700061EB17414FEA0C444FEA910706FB07FC70
:100E80004FEA1C4C0CFB0BF7B0EBC74072EB573230
:100E900003FB0CF734BFA2EBC742B2EBC74261EBD6
:100EA00057310CFB0EF7B0EBC70072EB57720CFB1F
:100EB00008F734BFA2EBC702B2EBC70261EB577170
:100EC000039F4FEA816141EA921104EBCC044FEA9F
:100ED000D1374FEA826206FB07FC42EA90124FEAE2
:100EE00080604FEA1C4C0CFB0BF7D21B03FB0CF78A
:100EF00061EB07010CFB0EF7B0EB074072EB1742FA
:100F00000CFB08F734BFA2EB0742B2EB074261EBE0
:100F100017414FEA8C554FEA910704EB9C2406FBDE
:100F200007FC4FEA1C4C0CFB0BF7B0EBC74072EB15
:100F3000573203FB0CF734BFA2EBC742B2EBC742F8
:100F400061EB57310CFB0EF7B0EBC70072EB577239
:100F50000CFB08F734BFA2EBC702B2EBC70261EB90
:100F6000577115EB4C254FEA816141EA92114FEA26
:100F700082624FEAD13742EA901206FB07FC44F145
:100F800000044FEA80604FEA1C4C0CFB0BF7D21BAD
:100F900003FB0CF761EB07010CFB0EF7B0EB07400E
:100FA00072EB17420CFB08F734BFA2EB0742B2EB1F
:100FB000074261EB174115EB1C154FEA813141EAFD
:100FC00092414FEA823242EA90424FEA80304FEA41
:100FD0000C7644F1000448EA03434EEA0B484FF014
:100FE000000EB2EB080C71EB030724BF62463946D2
:100FF0004EEB0E0E4FF0000B0018524149414BEBE7
:101000000B0BB2EB080C71EB03077BF1000B24BF59
:10101000624639464EEB0E0E4FF0000B001852415F
:1010200049414BEB0B0BB2EB080C71EB03077BF167
:10103000000B24BF624639464EEB0E0E51EA020702
:1010400018BF46F0010616EB0E7655F1000254F17A
:10105000000103D5BDE88901BDE80088BDE889012C
:10106000BDE80048B619524141EB0101A3F101036B
:10107000704780807F7E7D7C7B7A79787776767505
:101080007473727171706F6E6E6D6C6C6B6A6A697D
:101090006868676666656464636362616160605F17
:1010A0005F5E5E5D5D5C5C5B5B5A5A595958585790
:1010B00057565655555554545353525252515150F8
:1010C00050504F4F4F4E4E4D4D4D4C4C4C4B4B4B4B
:1010D0004A4A4A4949494848484747474746464691
:1010E00045454544444444434343434242424241CC
:1010F0004141002B9C4630D477002BD01CB54FEAE1
:10110000370703B44FF010004FF01001BAF1000F91
:1011100006D0BCF1000FDCBF40F0080040F0080131
:101120004FF000000FBCBDE810400BF1010BBBF10C
:10113000010F08BF5FEA170722BF12F1010211F188
:1011400001014FF0004143F1000300F0004043EA89
:1011500000007047F9D35708D0E746EA064613F176
:10116000400F4FEA16461FDD13F1200FDFBF164375
:101170000A46002120335B42BED0C3F1200746EA75
:10118000064602FA07F74FEA164646EA0706C3F193
:10119000200722FA03F201FA07F721FA03F14FF0D0
:1011A000000342EA0702A7E746EA020646EA0646C5
:1011B0004FEA164646EA0106BCBF46EA0646360C2A
:1011C0004FF000034FF000024FF0000194E72DE9CB
:1011D000804C9A46934670B491E8380007C831EACB
:1011E000400C48BF34EA430C03D5FFF7E6FDFFF798
:1011F00080FFF0BCBDE8008C2DE9804C9A469346F8
:1012000070B491E8380007C810F0804F08BF13F0A1
:10121000804F03D100F005F8FFF76BFFF0BCBDE88D
:10122000008C20F07F4780EA030023F07F4C07EB1F
:101230000C03A3F57C5300F00040A3F1FE0392F0F1
:10124000000F00F0B38095F0000F00F077802DE9DB
:1012500001494FEA11404FEA144621EA004800FBD9
:1012600006FC24EA064708FB06F607FB08F800FB25
:1012700007F718EB06484CEB164C4FEA124B18EBED
:1012800007484FEA15464CEB174022EA0B4E0BFB82
:1012900006FC25EA06470EFB06F607FB0EFE0BFBD7
:1012A00007F71EEB064E4CEB164C4FF000061EEBFC
:1012B000074E4CEB174B18EB0B0840F1000018EBF6
:1012C0000E0B58EB000840F100008F1A4FF00001A0
:1012D0003CBFC943661B14BFB5EB040C00213CBFE7
:1012E000C943F61B4FEA17444EEA8E0E27EA04451F
:1012F0004FEA1C4704FB07622CEA074C05FB07F783
:101300000CFB05F604FB0CFC16EB074642EB174200
:1013100016EB0C4642EB1C421BEB060658EB020296
:10132000414146EA9E0601D5BDE80189B619524100
:1013300041EB0101A3F10103BDE801894FEA144526
:101340004FEA114724EA054621EA074C05FB07F45A
:1013500006FB07F70CFB06F105FB0CFC11EB074144
:1013600044EB17444FEA124711EB0C4144EB1C4489
:1013700022EA074C05FB07F206FB07F70CFB06F613
:1013800005FB0CFC16EB074642EB174216EB0C462E
:1013900042EB1C456A1854F1000148BF7047B6196A
:1013A000524141EB0101A3F10103704795F0000F99
:1013B00037D04FEA11424FEA144721EA024624EAA5
:1013C000074C02FB07F106FB07F70CFB06F402FBD8
:1013D0000CFC14EB074441EB17414FEA154714EBA3
:1013E0000C4441EB1C4125EA074C02FB07F506FBC8
:1013F00007F70CFB06F602FB0CFC16EB074645EB69
:10140000174516EB0C4645EB1C42121951F1000131
:1014100048BF7047B619524141EB0101A3F10103E6
:1014200070474FEA14454FEA114724EA054621EA7E
:10143000074C05FB07F106FB07F70CFB06F24FF024
:10144000000605FB0CFC12EB074241EB174112EBC7
:101450000C4251EB1C4148BF7047921841EB01010F
:10146000A3F101037047000010B5044800F043FBEE
:10147000BDE81040024800F03EBB0000A82000205C
:10148000D820002070B5044600688168C943C907A8
:1014900017D1816821F00101816000F05DFF0546F0
:1014A0000AE000BF00F058FF401B022804D9206862
:1014B0008068C043C00706D020688068C043C0076A
:1014C000F0D0002070BDA06A40F01000A062E06A79
:1014D00040F00100E062012070BD0000F8B5002678
:1014E0000446009600688168C943C9072DD0816809
:1014F00041F001018160164816490068B0FBF1F027
:1015000000E0401E00900028FBD100F025FF0546BA
:1015100016E000BF00F020FF401B022810D9206811
:101520008068C043C0070BD0A06A40F01000A062E2
:10153000E06A40F00100E06284F824600120F8BD18
:1015400020688068C043C007E4D10020F8BD0000D7
:101550007401002040420F00FEE700207047002089
:101560007047000010B500220549064803F0F0F965
:1015700003490448403903F0E5F9002010BD00009C
:10158000382F0020342A002070B50C46054601464D
:101590000B4803F0D7F90A4803F0B8F909480021CD
:1015A0000160247829462246FEF720FF214628467E
:1015B000FEF793FF044901200870002070BD000071
:1015C000342A002074000020560100202DE9F0414B
:1015D0000E46074600F0C0FE05461348D0F8B84254
:1015E000D4F8140220B100F0B7FE401B0A2812D82C
:1015F000324639460C4803F0ABF90B4803F006FAC3
:10160000064600F0A9FE054608E000BF00F0A4FE73
:10161000401B0A2802D90120BDE8F081D4F8140249
:101620000028F3D13046F7E7342A002031B56D4663
:10163000002428190121FFF7C9FF641CE4B2042C1F
:10164000F7D338BD10B5084800F09AFC0648E430DE
:1016500002F068F94FF48051044800F070FE04492C
:101660000120087010BD000008210020001001407A
:101670000000002009480A4981600A49C1604115FB
:10168000416042F6AA710160491C01600448443877
:10169000016841F480710160704700000800024059
:1016A0004C24014034220020704772B6FEE700004F
:1016B0002DE9FF4F8DB014460D46060012D08DB1B6
:1016C000601EB0F5804F0DD204420BD1012C09DD14
:1016D0001098801E0D2805D21A98401C06D01A9822
:1016E000012803D0002011B0BDE8F08F60100990F0
:1016F000A346012082E0081A644951F820100491A1
:101700006249383151F8200005901A98012803D118
:10171000059880F0004005904FF07E500190002029
:101720004FEA6B0A009062E0074641E007EB0A08C7
:1017300056F82800079056F827000290079906F0FF
:1017400053F90A9055F82800069055F827000390A1
:10175000069906F049F90B900799029806F0C4FB28
:1017600002900699039806F0BFFB0390009906F0DB
:10177000BDFA0690DDE9011006F0B8FA069906F008
:10178000B3FB46F828000099029806F0AFFA0290E1
:101790000199039806F0AAFA029906F025F945F88E
:1017A00028000A9846F827000B9845F827005F4460
:1017B000A742BBDBDDE90007059906F097FA8046F2
:1017C0000499019806F092FA414606F08DFB0190CB
:1017D0003846059906F08AFA07460499009806F0FB
:1017E00085FA394606F000F9009009F101008146BA
:1017F000504599DB08984FEA6B0B401C10990890F4
:1018000088427FF778AF012001461BE0814211DA60
:101810004A1E431E56F822C056F8237055F82380FE
:1018200046F823C055F822C045F823C046F8227078
:1018300045F82280099A01E0801A52108242FBDBAF
:101840001044491CA142E1DB1A98401C1BD02046E1
:1018500006F000FA01464FF07E5006F039F9804656
:1018600000270EE056F82700414606F03FFA46F8FA
:10187000270055F82700414606F038FA45F82700BA
:101880007F1CA742EEDB01202DE70000E882000864
:1018900010B54021044800F04DFD012801D0002082
:1018A00010BD052010BD000000100140F8B5002556
:1018B0000446009590F82400012808D0012084F8FF
:1018C00024002046FFF7DEFD060002D053E0022090
:1018D000F8BDA06A20F4885040F00200A062022007
:1018E00001F0A6FA26490968B1FBF0F0400000E0DB
:1018F000401E00900028FBD12046FFF7EFFD206836
:10190000816841F00801816000F026FD074608E08B
:1019100000F022FDC01B0A2803D920688068000758
:1019200015D4206880680007F2D42068816841F0EF
:101930000401816000F010FD074612E000F00CFD8C
:10194000C01B0A280DD920688068400709D5A06A05
:1019500020F0020040F01000A06284F82450012022
:10196000F8BD206880684007E8D4A06A20F0020033
:1019700040F00100A06284F824503046F8BD000019
:10198000740100207047000070B58CB00E4604460C
:10199000002530216846FEF7C2FD94F82400012896
:1019A00018D0012084F82400114800902068816834
:1019B000C943C90711D000998968C943C9070CD028
:1019C0000C49884209D14168326821F470211143E1
:1019D000416007E002200CB070BDA06A40F020001A
:1019E000A0620125002084F824002846F3E70000C7
:1019F0000028014000240140F8B50024009490F82C
:101A000024202546012A12D0012280F824204A6889
:101A10001F23072A0DD20668776B521E02EB820243
:101A200093409F430B6893401F43776319E0022064
:101A3000F8BD06680D2A0AD2376BD21F02EB82026C
:101A400093409F430B6893401F43376309E0F76A55
:101A50000D3A02EB820293409F430B6893401F4371
:101A6000F7620A68072306680A2A0AD3F7680A3A5F
:101A700002EB420293409F438B6893401F43F76001
:101A800008E0376902EB420293409F438B68934022
:101A90001F4337610A68102A01D0112A20D1124B46
:101AA00002689A4217D193681B0219D4936843F4D1
:101AB000000393600968102912D10C490C4A096887
:101AC000B1FBF2F101EB8101490000E0491E0091F8
:101AD0000029FBD104E0816A41F0200181620124E8
:101AE00080F824502046F8BD0024014074010020F5
:101AF00040420F00704710B50446006841688906EF
:101B000026D50168890723D5A16AC90603D4A16A2D
:101B100041F40071A1628168C1F34241072910D1EB
:101B2000217B71B9416821F020014160A06A20F455
:101B30008070A062A06AC00403D4A06A40F00100D3
:101B4000A0622046FFF7D6FF21686FF01200086000
:101B50002068416809062ED5016849072BD5A16A7E
:101B6000C90603D4A16A41F40051A1628168C1F39E
:101B70000231072909D04168490515D48168C1F3AC
:101B80004241072910D1217B71B9416821F08001C0
:101B90004160A06A20F48050A062A06AC00503D40E
:101BA000A06A40F00100A0622046FFF7EBFE21682A
:101BB0006FF00C0008602068416849060DD5006888
:101BC000C0070AD0A06A40F48030A062204600F02E
:101BD00093F821686FF00100086010BD2DE9F04115
:101BE0004FF0000704003D467ED0A06A002628B9C9
:101BF000E66284F82460204600F080F82046FFF773
:101C000041FCA16AC90600D420B1A06A40F01000CE
:101C1000A06269E0A16A21F4885141F00201A16249
:101C20006268E169237B0A4347EA43010A43A168EA
:101C30004FF48077B94209D0012907D05FF0000145
:101C400094F814C0BCF1010F02D00AE03946F7E75E
:101C5000F3B1A36A43F02003A362E36A43F00103F4
:101C6000E3622368D3F804C02CF4694C4CEA010CFD
:101C7000C3F804C021688B68DFF870C003EA0C0366
:101C800013438B60A168B9420BD0012909D00CE045
:101C9000DFF85CC0A3690CEB43330B4343F40061F2
:101CA000DFE7218A0D05A5F580152168CB6A23F4AD
:101CB00070032B43CB62216889680E4B1940914217
:101CC00008D1E662A16A21F0020141F00101A1629E
:101CD000BDE8F081A06A20F0020040F01000A06290
:101CE000E06A40F00100E0620120F1E7FDF7E1FF6A
:101CF00000E0FFFFFE0E1FFF70470000F0B585B04B
:101D0000002500950195029503950646324B026821
:101D1000324801210324324F9A423AD1826942F477
:101D200000728261826902F400720492826942F058
:101D300010028261826902F010020492826942F00C
:101D4000080282618069CDE9001400F00800049067
:101D50006946244800F0FEF90220CDE900046946F6
:101D6000384600F0F7F9214C1F48C4E900058020EF
:101D7000C4E90250400020618000C4E90505204606
:101D8000E56100F0A7F908B1FFF78FFC34626662E5
:101D900018E0174B9A421DD1826942F48062826139
:101DA000826902F480620492826942F008028261D0
:101DB0008069CDE9001400F00800049069463846B7
:101DC00000F0C8F900221146122000F031FB122069
:101DD00000F020FB05B0F0BD0024014000100240DF
:101DE000000C0140001001400800024008210020C2
:101DF0000028014070B5044690F8240001280DD059
:101E0000012084F824002046FFF768FB02004FF011
:101E1000000005D084F82400104670BD022070BD7B
:101E2000A16A40F20123994341F48071A1621F4DE0
:101E300023681F49AB4218D10E6816F4702F14D0D6
:101E4000A66A46F48016A6620E68760505D5A66ACF
:101E500026F4005646F48056A662A66AF6040AD511
:101E6000E66A26F00606E66206E0A66A26F4801612
:101E7000A6625E68E9E7E06284F824006FF0020081
:101E8000186020688368C3F34243072B05D1A8423A
:101E900008D1096811F4702F04D0816841F48011D1
:101EA0008160B9E7816841F4A001F9E700280140A9
:101EB0000424014070B5044690F8240001280DD098
:101EC000012084F824002046FFF708FB02004FF0B1
:101ED000000005D084F82400104670BD022070BDBB
:101EE000A16A40F60163994341F48071A162224DD9
:101EF00023682249AB4218D10E6816F4702F14D013
:101F0000A66A46F48016A6620E68760505D5A66A0E
:101F100026F4005646F48056A662A66AF6040AD550
:101F2000E66A26F00606E66206E0A66A26F4801651
:101F3000A6625E68E9E7E06284F824006FF00200C0
:101F400018602068436843F020034360206883687A
:101F5000C3F34243072B05D1A84208D1096811F405
:101F6000702F04D0816841F480118160B4E78168EA
:101F700041F4A001F9E700000028014004240140D9
:101F80002DE9F05FC16B0C6801680B68D0F840C0A8
:101F9000042202FA0CF2494DDFF824A1494E4A4FBF
:101FA000DFF828B1DFF828E122422CD05A072AD5E1
:101FB0000A68920603D40A6822F004020A600168E3
:101FC000A94201D1042219E0514501D1402215E076
:101FD000B14202D14FF4806210E0B94202D14FF415
:101FE00080420BE0594502D14FF4802206E0714552
:101FF00002D14FF4800201E04FF080622F4908398E
:102000004A60C16A3BE04FF0020808FA0CF818EA8F
:10201000040F4FF000094FF0010235D05FEA8378DA
:1020200032D50B689B0605D40B6823F00A030B60BE
:1020300080F821200168A94201D1022219E051450E
:1020400001D1202215E0B14202D14FF4007210E01C
:10205000B94202D14FF400520BE0594502D14FF47E
:10206000003206E0714502D14FF4001201E04FF05A
:102070000072124908394A6080F82090816A00296C
:102080001AD0BDE8F05F0847082505FA0CF525428F
:1020900012D01B0710D50B6823F00E030B6090F8CD
:1020A0004010C36B02FA01F15960826380F821206D
:1020B00080F82090016BE2E7BDE8F09F0800024045
:1020C0001C00024030000240440002405800024020
:1020D0006C00024030B528B308C8134914221944D3
:1020E000B1FBF2F18900C16310498163022141779C
:1020F0001A6843F6F0718A43D0E900142143D0E90D
:1021000002452C43214304692143446921438469E6
:102110002143114319600021416301224277017775
:10212000084630BD012030BDF8FFFDBF0000024071
:1021300070B5044600F010F90546601C02D0044852
:102140000078044400F008F9401BA042FAD370BDA7
:10215000680100202DE9F84FDFF8B891002409F15B
:10216000040A0AF1040B23460F270BF1040EC9E001
:102170000125A5402A40AA427DD1674ED1F804C06E
:10218000ACEB0608B44532D014DCBCF1030F3AD0F6
:1021900009DCBCF1000F2AD0BCF1010F1CD0BCF14E
:1021A000020F31D11DE0BCF1110F17D0BCF1120F9D
:1021B0002AD119E0B8F5881F19D006DCB8F5803FA0
:1021C00015D0B8F5801F1FD111E0B8F5001F0ED053
:1021D000B8F5041F18D10AE0CB6815E0CB681B1DC9
:1021E00012E0CB6808330FE0CB680C330CE08B684F
:1021F0002BB1012B4FF0080303D0456104E0042309
:1022000002E0056100E00023FF2A01D8064601E054
:1022100000F104064FEA840501D9A5F12005D6F89E
:10222000008007FA05FC28EA0C0803FA05F548EADD
:102230000508C6F800804D68ED0062D5374DAE69DF
:1022400046F00106AE61AD6924F0030605F0010514
:102250000095334D06EB050CDCF80850A607360F49
:1022600007FA06F825EA0805DFF8B880404503D1EB
:102270004FF0000817E044E0DFF8AC80404502D1A1
:102280004FF001080FE0DFF8A480404502D14FF085
:10229000020808E0DFF89880404502D14FF00308BB
:1022A00001E04FF0040808FA06F848EA0508CCF8FF
:1022B00008804D68D9F80060ED034D4601D51643FE
:1022C00000E096432E604D68DAF80060AD03554695
:1022D00001D5164300E096432E604D68DBF80060A0
:1022E000ED025D4601D5164300E096432E604D6831
:1022F000DEF80060AD02754601D5164300E0964356
:102300002E60641C0D682A46E5407FF431AFBDE8BD
:10231000F88F00000004014000001110001002407E
:102320000000014000080140000C01400010014085
:10233000001401408068084000D001207047C26846
:1023400021EA02030A4043EA0241016170470AB1EF
:10235000016170470904FBE701488068704700008D
:10236000680100200248816802781144816070474A
:1023700068010020074810B5016841F010010160B4
:10238000032000F075F80F2000F006F800F024F8A4
:10239000002010BD0020024070B50D4D04464FF4E2
:1023A0007A712878B1FBF0F00A490968B1FBF0F0C6
:1023B00001F0C9F948B9102C07D200222146501E5D
:1023C00000F036F800206C6070BD012070BD000088
:1023D00068010020740100200C4808B5816941F0B3
:1023E00001018161816901F001010091C16941F040
:1023F0008051C161C06900F080500090044841687C
:1024000021F0E06141F00071416008BD0010024020
:1024100000000140002809DB00F01F02012191406B
:102420004009800000F1E020C0F800117047000072
:10243000F0B40E4B1B680C46C3F30223C3F107052F
:10244000042D00D90425191D072901D2002300E01D
:10245000DB1E012606FA05F1491E214099409E40E7
:10246000761E16403143F0BC03F074BD0CED00E065
:10247000064900F0070208684FF6FF03184040EADB
:102480000220034A10430860704700000CED00E092
:102490000000FA0510B50C0607D501F0070101EBA5
:1024A000810100EBC100283005E001EB810100EB68
:1024B000C10000F5B47099B232B1012202730181FA
:1024C000190C4181002010BD00220273C180F9E780
:1024D000704701EB810200EBC202D0F8E802D26B38
:1024E00002F043BC01EB810200EBC202D0F8E8022B
:1024F000D2F87C2102F09CBC70B504460B0601F0BA
:10250000070000EB800104EBC1014FF001024FF026
:10251000000503D581F82920283103E081F86951AD
:1025200001F5B471087094F8A802012808D084F865
:10253000A822206803F0BCF884F8A852002070BDDF
:10254000022070BD70B5044601F00F006268904231
:1025500001D9012070BD0B0601F0070000EB8001DE
:1025600004EBC1014FF001024FF0000503D581F8E3
:102570002920283103E081F8695101F5B4718D708B
:10258000087094F8A802012808D084F8A8222068CE
:1025900003F02BF984F8A852002070BD022070BD12
:1025A0002DE9F05F04685FEA424C0B788D69B4F85E
:1025B00050C04FF000064BF68F7948F2800A48F67B
:1025C0008F7B48F2C00E4FF480672AD54FF0020887
:1025D00008EBC308C44407EB4C07E45BC4F30904ED
:1025E000A54203D32D1B8D6101D00BE08E610668DF
:1025F00036F8235005EA090585F4005545EA0A0531
:1026000026F82350520609D50D78036833F82520A3
:1026100002EA0B0242EA0E0223F8252084B30A895B
:1026200029E04FF0060808EBC308C44407EB4C0749
:10263000E45BC4F30904A54203D32D1B8D6101D0D3
:102640000BE08E61066836F8235005EA090585F42B
:10265000005545EA0A0526F82350520609D40B789E
:10266000056835F8232002EA0B0242EA0E0225F83B
:1026700023202CB14A8949690068234603F024FCD1
:102680002046BDE8F09F2DE9F05F054600680C4646
:102690005FEA426C16468B692278B0F850C048F663
:1026A0008F774CF280094FF6FF7B4FF4004E4FF4CA
:1026B000806A4FF000017BD54FF0020808EBC2089A
:1026C000E0440AEB480C30F80C00C0F309008342E8
:1026D00011D91B1AA3610FD0730407D52E6836F8E1
:1026E00022303B4043EA090326F8223094F82420A4
:1026F000012A50D04EE1A161607810B1012813D0B9
:102700001AE02868B0F85030184400EB0210B0F816
:10271000042422F4F842A0F80424B0F8042442F47B
:102720000042A0F8042407E02868B0F850301844AC
:1027300000EB0210A0F804146278286812B1012A94
:1027400011D018E0B0F850100844217800EB0110C7
:10275000B0F80C1421F4F841A0F80C14B0F80C14E3
:1027600041F4004105E0B0F850201044227800EB1D
:102770000210A0F80C1421782846FFF7AAFE700476
:10278000B8D521782A6832F82100384040EA09009B
:1027900022F82100FEE0626902446261E2690244BB
:1027A000E2612369226A9A4203D31846111A04E0AF
:1027B00038E084F824100AB110462162617811B122
:1027C000012923D02BE02968B1F850201144227848
:1027D00001EB021101F2044148B13E280FD8420832
:1027E000C30700D0521C0BEA82220A8017E00A8835
:1027F00022F4F8420A800A8842F40042F5E74209CE
:10280000C30600D1521E4EEA8222EEE72968B1F8D3
:1028100050201144227801EB0211A1F8040483B284
:102820002289B3E04FF0060808EBC208E0440AEB47
:10283000480C30F80C00C0F30900834211D31B1A76
:10284000A3610FD0730407D42E6836F822303B40C2
:1028500043EA090326F8223094F82420012A50D0B4
:1028600098E0A161607810B1012813D01AE02868BF
:10287000B0F85030184400EB0210B0F8042422F4F1
:10288000F842A0F80424B0F8042442F40042A0F86E
:10289000042407E02868B0F85030184400EB021018
:1028A000A0F804146278286812B1012A11D018E047
:1028B000B0F850100844217800EB0110B0F80C1467
:1028C00021F4F841A0F80C14B0F80C1441F40041C4
:1028D00005E0B0F850201044227800EB0210A0F878
:1028E0000C1421782846FFF7F4FD700452D42278A6
:1028F000296831F82200384040EA090021F8220016
:1029000048E0626902446261E2690244E26123696B
:10291000226A9A4203D31846111A216204E00AB1CE
:102920001046216284F824106278296812B1012AC5
:1029300022D029E0B1F850201144227801EB021195
:1029400001F20C4148B13E280FD84208C30700D01D
:10295000521C0BEA82220A8016E00A8822F4F8420E
:102960000A800A8842F40042F5E74209C30600D112
:10297000521E4EEA8222EEE7B1F85020114422782E
:1029800001EB0211A1F80C04628983B26169286825
:1029900003F0B8FA21782A6832F8210048F6BF73AC
:1029A000184080F0300048F28003184322F82100DC
:1029B0000020BDE8F09F01F0070101EB810100EB71
:1029C000C100D0F8840170472DE9F04104460F069C
:1029D00001F0070000EB800104EBC1014FF001069C
:1029E0004FF0000503D581F82960283103E081F814
:1029F000695101F5B47108700A61CB704A7802B16F
:102A0000C881022B00D10D7194F8A802012809D0C9
:102A100084F8A862206802F01DFD284684F8A852B8
:102A2000BDE8F0810220FBE770B50C4601F0070518
:102A300005EB850100EBC101C1E95F230022C1F86C
:102A4000842181F8692181F8685101F5B471620728
:102A5000006802F01FFF002070BD70B504460D46EF
:102A600001F007006168884201D9012070BD290684
:102A70004FF000064FF0010207D500EB800104EB98
:102A8000C10181F82920283107E005EB850104EB1D
:102A9000C10181F8696101F5B4718A70087094F818
:102AA000A802012807D084F8A822206802F0D9FEE5
:102AB000680702D006E0022070BD04F52C71206882
:102AC00002F091FE84F8A862002070BD70B50C463B
:102AD00001F0070505EB850100EBC101C1E90F23FA
:102AE000012281F84C208B6400234B6481F829205B
:102AF00001F8285F6207006802F0CCFE002070BD7C
:102B00001FB50446006803F0DBF9000402D5204637
:102B100001F046FB206803F0D3F940050CD520688E
:102B200030F8441F21F480610180204600F01EF936
:102B30000021204600F035F9206803F0C1F9400477
:102B400005D5206830F8441F21F4804101802068B9
:102B500003F0B6F9800405D5206830F8441F21F44D
:102B600000510180206803F0ABF9C00414D520683F
:102B700030F8401F21F004010180206830F8401F28
:102B800021F008010180204600F003F9206830F8A8
:102B9000441F21F480510180206803F091F9000561
:102BA0003ED522680020694632F8203021F81030E6
:102BB000401CC0B20828F7D332F8400F40F00100A3
:102BC0001080206830F8402F22F001020280206837
:102BD000B0F844205205FBD530F8442F22F480622F
:102BE00002800020236831F8102023F82020401CA8
:102BF000C0B20828F6D3206830F8401F41F0080121
:102C00000180206830F8441F21F4006101802068B1
:102C100030F8401F41F004010180204600F0F6F832
:102C2000206803F04DF9800508D5206830F8441F6E
:102C300021F400710180204600F0AFF8206803F015
:102C40003FF9C00505D5206830F8441F21F4807194
:102C500001801FBD2DE9F04186B0040004D094F836
:102C6000A902002520B108E0012006B0BDE8F081EE
:102C700084F8A852204600F05BF8032084F8A902EB
:102C8000206802F0A9FD04F110011422884668466C
:102C9000FDF7F1FB94E80F0002F008FD0226D0BB1F
:102CA0000021206803F026F9002001270FE000BF73
:102CB00000EB800104EBC10181F8297001F8280FB5
:102CC000C881CD700D614D61401CC0B28D616168DD
:102CD0008142EDD8002011E000EB800104EBC1013E
:102CE00081F8695181F8680181F86B51C1F8785118
:102CF000C1F87C51401CC0B2C1F88051616881426A
:102D0000EAD8142241466846FDF7B5FB94E80F0067
:102D100002F059FD10B184F8A962A5E784F82450A7
:102D200084F8A972206802F04CFD00209DE70000A5
:102D300008B500680B49884212D10B48C16941F4BB
:102D40000001C161C069002200F40000009011463A
:102D50001420FFF76DFBBDE808401420FFF75ABBB5
:102D600008BD0000005C00400010024070B5044641
:102D700080680125022801D0FEF797FC2946D4F887
:102D8000E80202F03EF9D4F8E802BDE8704002F033
:102D9000FAB8D0F8E80202F01EB9D0F8E80202F062
:102DA00024B910B5044690F8A80201280BD00120E0
:102DB00084F8A80284F82410206803F09DF800200D
:102DC00084F8A80210BD022010BDD0F8E82200F55A
:102DD0002C71104602F021B910B5044690F8A802F3
:102DE000012810D0012084F8A802206803F058F8C8
:102DF00001212046FFF76CFB206802F0E0FC002078
:102E000084F8A80210BD022010BD000010B50446D1
:102E1000D0F8E80202F040F9A069002804D0034885
:102E2000016841F00601016010BD000010ED00E0F6
:102E300010B529A401461DCC86B08DE81D002AA03E
:102E40002A4C006804900020012923D002293AD09E
:102E500010291DD161682268D20119D5C1F38342BE
:102E6000C9031DF8020009D5616804AAC1F34041F5
:102E7000515C1F4AB2FBF1F1484301E01D49484350
:102E80006168490204D440005FF00301B0FBF1F037
:102E900006B010BD226AC2F30121012903D19207B5
:102EA00001D5C803F4E7022905D1626A920702D569
:102EB00049F64040ECE70329EAD121688903E7D5C8
:102EC0004FF22440E4E700F023F96168C1F3813157
:102ED000491C4900DAE70000020304050607080957
:102EE0000A0B0C0D0E0F1010010200000010024022
:102EF00000127A0000093D002DE9F84305460078EC
:102F0000354CC00754D0E0690026C00008D4E06901
:102F100040F08050E061E069012600F080500090B0
:102F20002E480168C90512D40168804641F48071B9
:102F30000160FFF711FA074605E000BFFFF70CFA42
:102F4000C01B642823D8D8F80000C005F6D5206A35
:102F500010F4407021D0A98801F4407181421CD046
:102F6000206A1F49012220F440700A6000220A6092
:102F70002062C00711D0FFF7EFF9074641F2883809
:102F800008E000BFFFF7E8F9C11B414502D9032063
:102F9000BDE8F883206A8007F4D5206A696820F4C8
:102FA0004070084320621EB1E06920F08050E0616B
:102FB0002878800705D56068A96820F44040084358
:102FC00060602878C00605D56068E96820F4800054
:102FD000084360600020DBE7001002400070004002
:102FE000400442422DE9F0470F46050061D0434EB0
:102FF000306800F00700B84209D2306820F00700BE
:1030000038433060306800F00700B84251D128687A
:103010003B4C810712D5400703D5606840F4E0605F
:1030200060602878000703D5606840F460506060F5
:103030006068A96820F0F000084360602878C00745
:1030400028D06868012810D02168022810D089078C
:1030500000292EDA616821F0030101436160FFF766
:103060007BF9804641F288390DE021688903EFE75A
:103070008901EDE7FFF770F9A0EB0801494502D996
:103080000320BDE8F0876068696800F00C00B0EBD1
:10309000810FEFD1306800F00700B8420BD93068DB
:1030A00020F0070038433060306800F00700B84275
:1030B00001D00120E5E72878400705D56068E96878
:1030C00020F4E060084360602878000706D5606857
:1030D000296920F4605040EAC100606000F028F8DF
:1030E0006168084AC1F30311515CC8400649086091
:1030F00006480068FFF750F90020C2E700200240B0
:103100000010024058830008740100206C01002068
:103110000448054900684968044AC1F3C221515C6A
:10312000C840704774010020001002406883000806
:1031300012A185B00FC98DE80F0014A0144A0068D1
:1031400004905168134801F00C03042B10D0082B95
:103150000ED1C1F38343C9031DF803000AD551689A
:1031600004AAC1F34041515C0A4A5043B0FBF1F05C
:1031700005B0704708494843FAE700000203040518
:10318000060708090A0B0C0D0E0F101001020000B3
:103190000010024000127A0000093D002DE9F84FAE
:1031A000040070D02078C04DC00749D06868C0F3D3
:1031B0008100012807D06868C0F38100022809D186
:1031C0006868C00306D52868800339D56068002880
:1031D000E7D035E06068B0F5803F0BD010B1B0F5B6
:1031E000A02F11D0286820F480302860286820F4AF
:1031F000802002E0286840F480302860606890B148
:10320000FFF7AAF806460AE0286840F48020286004
:10321000F0E700BFFFF7A0F8801B642873D8286888
:103220008003F7D50CE0FFF797F8064605E000BFEE
:10323000FFF792F8801B6428F0D828688003F7D441
:1032400020789A4E80074FF001094FF0000839D5D9
:10325000686810F00C0F07D06868C0F3810002287E
:1032600009D16868C00306D42868800714D520698E
:10327000012808D110E02069B0B1C6F80090FFF72E
:103280006BF8074605E00AE1FFF766F8C01B022865
:10329000C4D828688007F7D52868616920F0F8004D
:1032A00040EAC10028600DE0C6F80080FFF754F83E
:1032B000074604E0FFF750F8C01B022823D828680F
:1032C0008007F7D4207800072CD57948A169D9B1B7
:1032D000C0F80090FFF740F8074604E0FFF73CF81D
:1032E000C01B02280FD8686A8007F7D571484FF4D1
:1032F000FA510068B0FBF1F0009000BF0098411E49
:103300000091FAD20EE080E0C0F80080FFF724F8C8
:10331000074604E0FFF720F8C01B022875D8686A4A
:103320008007F7D42078400760D5E8690027C000FF
:1033300008D4E86940F08050E861E869012700F0AE
:10334000805000905C480168C90513D40168834629
:1033500041F480710160FEF7FFFF824606E000BF86
:10336000FEF7FAFFA0EB0A0064284ED8DBF8000055
:10337000C005F5D5E06801280AD008B1052813D0AA
:10338000286A20F001002862286A20F0040002E088
:10339000286A40F001002862E06841F2883B98B159
:1033A000FEF7DAFF82460BE0286A40F0040028624C
:1033B000EEE700BFFEF7D0FFA0EB0A0159455AD84F
:1033C000286A8007F6D50CE0FEF7C6FF824605E0C6
:1033D000FEF7C2FFA0EB0A0159454CD8286A8007C6
:1033E000F6D41FB1E86920F08050E861E06988B345
:1033F0006968C1F38101022944D00228C6F86080BF
:1034000004D0FEF7A9FF044638E034E0FEF7A4FF3D
:10341000074604E0FEF7A0FFC01B02282BD828684F
:103420008001F7D4206AB0F5803F05D16868A168B3
:1034300020F4003008436860D4E908010843696853
:1034400021F4741108436860C6F86090FEF784FFA9
:10345000044606E025E000BFFEF77EFF001B0228C1
:1034600009D828688001F7D51BE000BFFEF774FF7C
:10347000001B022802D90320BDE8F88F28688001CC
:10348000F4D40EE00128F7D06868226A00F4803195
:10349000914204D1616A00F47010884201D0012089
:1034A000EAE70020E8E70000001002400000424286
:1034B00080044242740100200070004070B5040096
:1034C00009D0606A002540B125616561A56294F864
:1034D000510040B10CE0012070BD6068B0F5827F02
:1034E000F4D0E561F2E784F85050204600F040F84F
:1034F000022084F851002068016821F04001016039
:10350000A088218900F4827001F404410843A18954
:1035100001F400610843217C01F002010843217D90
:1035200001F001010843218B01F400710843217F60
:1035300001F03801084394F8201001F0800108439D
:10354000218D01F40051084321680860A06904211D
:1035500001EA1040216848602068C16921F40061D7
:10356000C1616565012084F85100002070BD000034
:1035700030B585B00024009401940294039400684F
:103580001449884223D11448816941F480518161F2
:10359000816901F480510491816941F004018161E4
:1035A00080690E4D00F004000490A02000900220DD
:1035B00001900320039069462846FEF7CBFD40208A
:1035C000CDE90004694628460294FEF7C3FD05B024
:1035D00030BD0000003001400010024000080140F2
:1035E0002DE9F84F044690F8500000271D46164676
:1035F000894601280DD04FF0010B84F850B0FEF73A
:10360000ABFE804694F85100BA46012804D0022748
:1036100093E00220BDE8F88FB9F1000F73D0002EBF
:1036200071D0032084F85100C4F854A0C4F830903D
:10363000A686E686C4F838A0A4F83CA0A4F83EA06C
:10364000C4F844A0C4F840A0A068B0F5004F09D168
:103650002068016821F0400101602068016841F4A0
:103660008041016020680168490603D4016841F087
:1036700040010160E068B0F5006F606803D030B3CE
:10368000012E24D041E008B1012E1CD1206B21680D
:103690000088C86006E020688168890709D5216B29
:1036A0000988C160206B801C2063E08E401EE0868C
:1036B00009E0FEF751FEA0EB0800A84202D3681C07
:1036C00001D031E07DB3E08E0028E4D120E0206B12
:1036D00021680078087306E020688168890709D5A9
:1036E000216B09780173206B401C2063E08E401E23
:1036F000E0860AE0FEF730FEA0EB0800A84203D304
:10370000681C02D010E017E06DB1E08E0028E3D114
:1037100042462946204600F0CEFE08B120206065D2
:10372000A06818B106E0FFE7032706E02068C1683B
:1037300080680090606D00B1012784F851B084F872
:1037400050A0384666E710B5401EB0F1807F01D327
:10375000012010BD4FF0E02460610F21601702F0DE
:10376000F9FB0020A06107202061002010BD7047F8
:103770007047000070B590F83C20012A26D0012443
:1037800080F83C40022280F83D2003685A689D681A
:1037900022F070060A6832435A600D4B02689A4262
:1037A00008D0B2F1804F05D00A4B9A4202D00A4BA2
:1037B0009A4204D1496825F080031943916080F84A
:1037C0003D40002180F83C10084670BD022070BDCD
:1037D000002C0140000400400008004010B5040027
:1037E00003D094F83D0010B107E0012010BD002087
:1037F00084F83C00204600F01FF8022084F83D00C9
:10380000211D206800F046FF012084F8460084F85E
:103810003E0084F83F0084F8400084F8410084F8BA
:10382000420084F8430084F8440084F8450084F89A
:103830003D00002010BD000008B50D4B02680D4989
:103840009A4207D1CA6942F00202CA61CA6902F00B
:10385000020200920068084A904207D1886940F449
:1038600000608861886900F40060009008BD000075
:103870000004004000100240002C014090F83D1070
:10388000012901D001207047022180F83D10006815
:103890000B49884208D0B0F1804F05D009498842D1
:1038A00002D00949884204D1816801F00701062944
:1038B00003D0016841F00101016000207047000061
:1038C000002C0140000400400008004090F83D102A
:1038D000012901D001207047022180F83D100168C4
:1038E000CA6842F00102CA6000680B49884208D0E9
:1038F000B0F1804F05D00949884202D0084988427A
:1039000004D1816801F00701062903D0016841F064
:103910000101016000207047002C014000040040BC
:103920000008004001680A6A41F211131A4207D1E7
:103930000A6A9B101A4203D10A6822F001020A6047
:10394000012180F83D100020704770B5044690F8C2
:103950003C00012817D0012584F83C50022084F84F
:103960003D002068826822F0770222F47F42826064
:103970000868502830D00DDC20284DD005DC98B3E5
:1039800010283BD148E0022070BD302844D04028A8
:1039900034D139E0602828D0702806D0B0F5805F97
:1039A0002CD0B0F5005F29D10AE0CB68D1E9012124
:1039B000206800F0A5FE2068816841F0770109E0E9
:1039C000CB68D1E90121206800F09AFE2068816867
:1039D00041F48041816011E0CA684968206800F0C4
:1039E000A1FE5021206807E016E0CA6849682068F7
:1039F00000F0A9FE6021206800F08CFE84F83D50A4
:103A0000002084F83C0070BDCA684968206800F056
:103A100089FE40212068EFE7226801461046EBE767
:103A2000704770B50446006801694FF00005C9434E
:103A3000890715D4C168C943890711D4E91E0161FA
:103A400001202077206880698007204602D0FFF798
:103A5000E7FF04E000F098F8204600F096F825779C
:103A600020680169C943490717D4C168C943490798
:103A700013D46FF00401016102202077206880696F
:103A800010F4407F204602D0FFF7CAFF04E000F0A8
:103A90007BF8204600F079F8257720680169C94352
:103AA000090716D4C168C943090712D46FF0080189
:103AB0000161042020772068C0698007204602D079
:103AC000FFF7AEFF04E000F05FF8204600F05DF87D
:103AD000257720680169C943C90617D4C168C9435D
:103AE000C90613D46FF01001016108202077206807
:103AF000C06910F4407F204602D0FFF791FF04E038
:103B000000F042F8204600F040F82577206801696F
:103B1000C943C90708D1C168C943C90704D1891E6F
:103B20000161204600F032F820680169C9430906A6
:103B300009D4C168C943090605D46FF08001016149
:103B40002046FFF714FE20680169C943490609D4DD
:103B5000C168C943490605D46FF0400101612046A0
:103B600000F024F820680169C94389060BD4C168B4
:103B7000C943890607D46FF0200101612046BDE8E2
:103B80007040FFF7F5BD70BD70477047006805498C
:103B9000884205D10448012181700189491C0181B5
:103BA00070470000002C0140000000207047FEE735
:103BB000074800210122C170027106484022C0E975
:103BC00000210321C16001460348FEF7C3BA00008B
:103BD000000000209820002000100140F0B50023D4
:103BE0000A24302537261F4611E000BFB4EB107FB2
:103BF00002D905EB107C01E006EB107C01F813C044
:103C000001EB430C00015B1C8CF80170DBB29342AA
:103C1000ECD3F0BD10B50023542819D8302917D89B
:103C200000EB4000C1EBC101000101EB410100EBE1
:103C3000411002EB8201074AC0081144064ACC1821
:103C40005B1C14F8A04C64001454401C052BF6D3E4
:103C500010BD0000128100088C02002010B5002366
:103C600054281BD8302919D800EB4000C1EBC10102
:103C7000000101EB410100EB411002EB8201094A16
:103C8000C0081144084ACC1814F8A04CE44314545A
:103C9000401C042B03D05B1C052BF4D310BDFF216B
:103CA000115410BD128100088C020020002004492C
:103CB00002464FF4FC730A54401C9842FBDB7047E9
:103CC0008C02002010B504460021212000F0C2F82B
:103CD00044F08000002100F0BDF80021BDE8104054
:103CE000202000F0B7B800002DE9F041534886B01D
:103CF000816941F020018161816901F02001049115
:103D0000816941F010018161816901F01001049124
:103D1000816941F004018161816901F0040104912C
:103D2000816941F008018161816901F00801049114
:103D3000816941F4805181618069022600F48050DC
:103D40000490E020CDE900060327694603973C482C
:103D5000FEF700FA042001250024CDE90005DFF874
:103D6000E480CDE9024769464046FEF7F3F90122B7
:103D700004214046FEF7EBFACDE902474FF490608C
:103D8000CDE90005304F69463846FEF7E3F90122D8
:103D900080213846FEF7DBFA012291023846FEF711
:103DA000D6FA2B4829494FF4827280E81600456103
:103DB000C0E903464A15C0E90624046207224462AA
:103DC000C0E90A42086840F0400008602048FFF758
:103DD00075FB002280213846FEF7B9FA4FF47A7459
:103DE0002046FEF7A5F9012280213846FEF7AFFAFA
:103DF0002046FEF79DF90021212000F02BF800213C
:103E0000C82000F027F80021062000F023F8002148
:103E1000132000F01FF80021202000F01BF80021E3
:103E2000082000F017F800210C2000F013F8FFF72D
:103E30003DFF00F055F806B0BDE8F08100100240EB
:103E400000080140000C014000100140003001401A
:103E50004C21002073B5144E0C464FF480650022AF
:103E600029463046FEF773FA1048012C1AD000227A
:103E70000421FEF76CFA0E4C20688168C94389075B
:103E8000FBD46423012269460948FFF7A9FB206897
:103E90008168C9438907FBD4012229463046FEF7D1
:103EA00056FA7CBD0122E3E700100140000C0140FE
:103EB0004C210020F0B516460D46074600240AE0C6
:103EC0003946204616B1FFF7C9FE01E0FFF7A2FE12
:103ED000641CE4B26D1C2A78002AF1D1F0BD000008
:103EE00070B500218020FFF7B5FF00214020FFF7CB
:103EF000B1FF064D00244FF4FC76285D0121FFF749
:103F0000A9FF641CB442F8DB70BD00008C020020E5
:103F10001FB500211C48039100910191194A02919B
:103F2000026092158260017301750224D20204615D
:103F3000C2614160FDF752FE08B172B6FEE74FF470
:103F4000C020039003A91048FDF71EFD08B172B60A
:103F5000FEE70A20009001200190029069460A487D
:103F6000FDF74AFD08B172B6FEE70920CDE900046D
:103F700069460548FDF740FD002801D072B6FEE70E
:103F80001FBD000000240140A82000203EB50021F4
:103F90001148009101910F4A029102608160017302
:103FA000017501244FF460220461C2614160FDF794
:103FB00015FE08B172B6FEE70820CDE90004694697
:103FC00005480294FDF718FD002801D072B6FEE7FF
:103FD0003EBD000000280140D82000202DE9F0411E
:103FE00086B000242A4800940194029403948169C5
:103FF00041F010018161816901F010010491816932
:1040000041F004018161816901F004010491816939
:1040100041F00801816180691E4F00F008000490A2
:10402000002204213846FEF792F9DFF86C80002266
:104030004FF4E4514046FEF78AF904200125032697
:10404000CDE90005CDE9024669463846FEF782F81B
:104050004FF49060CDE90005CDE90246694640463F
:10406000FEF778F828030226CDE90005CDE90246DF
:1040700069464046FEF76EF8E802CDE90005CDE955
:10408000024669464046FEF765F806B0BDE8F08195
:1040900000100240000C0140001001400F4810B514
:1040A0000D4901604FF48271416000218160C1605F
:1040B0004FF400720161C0E905121822C0E907211E
:1040C000416281620A21C162FFF7F8F9002801D03C
:1040D00072B6FEE710BD0000003001404C21002008
:1040E00010B586B0002417480094019402940394FC
:1040F00004941349059401604821C0E901144FF468
:10410000FA71C0E903148461FFF768FB08B172B665
:10411000FEE74FF48050009069460A48FFF715FC0F
:1041200008B172B6FEE72020CDE9040404A90548D1
:10413000FFF720FB002801D072B6FEE706B010BDE5
:1041400000040040EC21002010B500220F49104867
:1041500000F0E4FD08B1FDF7A8FA0E490C4800F0A4
:10416000C1FF08B1FDF7A1FA0B49094800F0E2FBD5
:1041700008B1FDF79AFA064801F00AF8002803D0C2
:10418000BDE81040FDF791BA10BD00000801002005
:10419000342A00205402002058010020FEE7FEE7E8
:1041A0002DE9F84F044640F68F7B48F60F7A4FF022
:1041B00002094FF4806874E1B0F8441011F00F0662
:1041C0003AD030F8267039047DD530F8261001EA4F
:1041D0000B0141F0800120F8261006EB860004EB6D
:1041E000C00595F8740105F5B47500286CD0E87821
:1041F00002286AD02878226832F8201048F68F7397
:10420000194048F2C003194322F820102878D4F846
:1042100000C03CF82010BCF8502049047ED509EBC2
:10422000C000111808EB41003CF800008005800D2B
:10423000009074D02A89D8E0C9062DD4018801EAFB
:104240000A0141F400410180216804F12805B1F818
:1042500050202B7809EBC300024408EB4200085AB7
:10426000C0F309006064E16B0844E063002120466C
:10427000FEF72FF994F8240000289CD0A8690028A4
:1042800099D194F82400216840F08000A1F84C00F6
:10429000002084F8240004E1018804F5B4750A05BF
:1042A00021D5B0F850202B78062101EBC3010A4438
:1042B00008EB4201405A04F52C71C0F30903EB618D
:1042C000EA88206802E0ACE068E07AE001F0FCFDFA
:1042D0002168088800EA0B0040F080000880204632
:1042E000FEF773FDDDE00904D5D5018801EA0B0175
:1042F00041F0800101802068B0F850202B78062121
:1043000001EBC3010A4408EB4201405A83059B0DAF
:10431000EB6110D0696971B1EA8801E058E056E0BC
:10432000206801F0D1FDE9696869084468610021ED
:104330002046FEF7D7F82068018809052DD4B0F88B
:1043400050100844296900F20C4051B13E2910D8A0
:104350004A08C90700D0521C4FF6FF7101EA8221BA
:104360000FE0018821F4F8410180018841F4004107
:1043700007E04A09C90600D1521E4FF4004141EA44
:1043800082210180206801884BF68F72114081F4F0
:10439000405148F280021143018082E0D4F800C00D
:1043A000BCF850102A78062000EBC200014408EB4C
:1043B00041003CF800008005800D00901AD0EA888A
:1043C00013E03A4629462046FEF7EAF8009011E04D
:1043D000062101EBC000111808EB41003CF8000079
:1043E0008005800D009005D06A89034660466969A2
:1043F00001F06AFDE96900980844E861696900987C
:1044000008446861A86918B129690098814204D9F3
:1044100029782046FEF766F803E02946206801F077
:1044200039FA38063DD506EB860004EBC00120685A
:1044300030F8262002EA0A0242F4004220F8262040
:1044400091F82B002831032804D018B1022824D178
:10445000F80522D42368B3F850200D7809EBC50085
:10446000024408EB4200185A8A69C0F309008242EC
:104470000CD9121A8A610BD04A6902444A61CA698E
:104480001044C861206801F005FA0AE00020886144
:10449000E9B22046FEF71DF803E03A462046FEF753
:1044A000F2F82068B0F8441009043FF585AE00200A
:1044B000BDE8F88F704738B50B46009204460022DD
:1044C000802100F009F8002804D0606D40F0200041
:1044D0006065032038BD00002DE9F8431E46914673
:1044E00088460446089DFDF737FF401B351AFDF747
:1044F00033FF074625480068C0F3CB30684338E0F7
:10450000701C37D0FDF728FFC01BA84203D215B19D
:10451000009860B32CE02068416821F0E001416020
:104520006068B0F5827F0BD1A068B0F5004F02D073
:10453000B0F5806F04D12068016821F0400101606E
:10454000A06AB0F5005F09D12068016821F400512C
:1045500001602068016841F400510160012084F885
:104560005100002084F850000320BDE8F8830025A6
:10457000401E00902068816838EA010004D00021C4
:104580004945BDD10020F0E70121F9E77401002081
:104590007047FDF7E7BE30B593B028216846FBF7BA
:1045A000BEFF14210AA8FBF7BAFF002401200F94D4
:1045B00010941194010412948DE8130004904FF4A8
:1045C000E010CDE90810022507956846FEF7E6FDE4
:1045D00008B172B6FEE70F20CDE90A054FF48060FE
:1045E000CDE90C4002210AA80E94FEF7FBFC08B1AD
:1045F00072B6FEE712200F904FF40040CDE911048F
:104600000FA8FEF779FC002801D072B6FEE713B0C0
:1046100030BD704710B586B000241948009401944D
:104620000294039404941549059401602421C0E97F
:1046300001141449C0E903148461FFF7CFF808B1ED
:1046400072B6FEE74FF48050009069460C48FFF7C1
:104650007CF908B172B6FEE72020CDE904044FF0E2
:10466000E0210005C1F8000104A90548FFF782F820
:10467000002801D072B6FEE706B010BD002C014044
:10468000A421002080841E000148FFF7CAB9000061
:10469000A4210020F0B50268164B174C174D4FF0BF
:1046A0008047984205D0B84203D0A04201D0A8422A
:1046B00003D122F070064A683243984205D0B842CE
:1046C00003D0A04201D0A84203D122F44074CA68AA
:1046D00022434C6922F08002224302608A68C2624F
:1046E0000A688262984201D109690163012141612E
:1046F000F0BD0000002C0140000400400008004014
:1047000010B5846842EA032224F47F440A4322431A
:10471000826010BD826822F070020A4342F00701F5
:104720008160704710B5036A046A24F001040462D2
:10473000846924F0F00444EA021423F00A020A43D4
:104740008461026210BD10B5036A23F01003036296
:104750008369046A23F4704343EA023224F0A0031D
:1047600043EA01118261016210BD2DE9F041D0F8E8
:10477000C032D0F8B822CAB101EB810500EB850444
:104780000026E7693FB103EBC5039B6BB7FBF3F56D
:1047900003FB157323B1C2F814620020BDE8F08159
:1047A00000231A46E66100F080FCF6E70220F5E7F8
:1047B00070B50546D0F8B84200F07BFBC4F80C0297
:1047C000D5F8B80248B1D5F8BC12D4F80402CA68CA
:1047D00004F503719047002070BD022070BD70B5D4
:1047E00004460026812100F0B7FA00250121204669
:1047F000E56200F0B1FA82212046C4F86C5100F065
:10480000ABFA2564D4F8B80248B1D4F8BC0204F578
:104810002E7440688047206800F017FE25603046FF
:1048200070BD10B5D0E9AE4159B194F80002FF282F
:1048300007D08B6894F8012221469847FF2084F81E
:104840000002002010BD00000A21018000487047CE
:104850007C0100204321018000487047CC010020EA
:1048600043210180004870478801002043210180D6
:1048700000487047100200202DE9F0410446002650
:10488000007C4FF40077012590B340230222812160
:10489000204600F063FB4023E5620222012120460E
:1048A00000F05CFB0823032282212046C4F86C51EF
:1048B00000F054FB4FF40770256400F0C7FDC4F806
:1048C000B802F8B10546D4F8BC0200688047002061
:1048D000C5F81402C5F81802207CD5F8042298B156
:1048E00040230121204600F045FB3046BDE8F08121
:1048F000FFE73B4602228121204600F02FFB3B468A
:10490000E562CAE70126F0E73B46EAE710B5D0F8D2
:10491000B81269B1027C002AD1F8042205D04023E4
:10492000012100F027FB002010BD4FF40073F7E7D2
:10493000022010BD02460220002902D00020C2F849
:10494000BC127047D0F8B802C0F8041200207047BB
:10495000D0F8B802C0F81022C0F808120020704742
:104960002DE9FC410546D0F8B87200208DF8000012
:10497000ADF80400064608780C4610F0600121D01E
:1049800020293BD1E288AAB10006607807D5D5F886
:10499000BC128B6839469847E288394626E087F88A
:1049A0000002A07987F80102E2883946284600F023
:1049B0006AF828E0D5F8BC12607800228B6821469E
:1049C000984720E0607820B10A2809D00B2815D13B
:1049D00010E095F89C02032810D1022201A905E0FD
:1049E00095F89C02032809D101226946284600F067
:1049F00064F808E095F89C02032804D02146284674
:104A000000F036F802263046BDE8FC8110B5D0F83B
:104A1000B812A1B1D1F814220AB1012010BD0122AF
:104A2000C1F81422D1F810220263B1F8102293B217
:104A3000D1F80822812100F038FB002010BD0220AF
:104A400010BD10B5D0F8B42252689047002010BDB8
:104A5000134610B50A46002100F08CFA002010BD64
:104A6000134610B50A46002100F01FFB002010BDC0
:104A700010B50446802100F0FDFA2046BDE8104044
:104A8000002100F0F7BA10B50323C0F85C21C0F88C
:104A90009432C0F8602113460A46002100F06AFAF9
:104AA000002010BD10B505210023C0F894121A464D
:104AB000194600F05FFA002010BD10B50223C26154
:104AC000C0F89432026213460A46002100F0EDFA63
:104AD000002010BD10B504210023C0F894121A461E
:104AE000194600F0E2FA002010BD000010B50A4699
:104AF000024903A000F0E2F8004810BDF82C0020A5
:104B000043444320436F6E666967000012200880AB
:104B1000004870472801002010B50A46024903A04A
:104B200000F0CCF8004810BDF82C0020434443208E
:104B3000496E746572666163650000000420088038
:104B4000004870472401002010B50A46024903A01E
:104B500000F0B4F8004810BDF82C002053544D6903
:104B600063726F656C656374726F6E696373000066
:104B700010B50A46024903A000F0A0F8004810BD95
:104B8000F82C002053544D333220566972747561ED
:104B90006C20436F6D506F727400000010B51A20C6
:104BA00008800A480168001D0468001D0068081894
:104BB00009D008220649FFF711F8054904221031EF
:104BC0002046FFF70BF80248801E10BDE8F7FF1FD4
:104BD0003E010020F8B504460020ADF800004888EA
:104BE0000D46010A082948D2DFE801F047040917F9
:104BF00047473C45D4F8B012207C0A6819E0207C75
:104C000002260028D4F8B40205D0C16A6846884755
:104C1000014646703EE0816AF8E7C0B206282CD211
:104C2000DFE800F0030A1014181CD4F8B002426840
:104C300005E0694690471CE0D4F8B0028268E2B112
:104C4000207CF6E7D4F8B002C268F8E7D4F8B002E6
:104C50000269F4E7D4F8B0024269F0E7D4F8B00290
:104C60008269ECE7207C40B9D4F8B402416B684615
:104C7000884701460EE0207C20B129462046FFF7F8
:104C8000F7FEF8BDD4F8B402016B684688470146C8
:104C900007204870BDF8000048B1EA8852B182424E
:104CA00000D90246ADF800202046FFF706FFE8884D
:104CB0000028E6D12046FFF70DFFF8BD70B50023B0
:104CC00000281ED00446002502E06D1CEDB2641CD5
:104CD0002678002EF9D1022404EB450414801278C2
:104CE000CA545B1C0322CA5400245B1C06E0CA544D
:104CF0005B1CDAB28C54521CD3B2401C0278002ADE
:104D0000F5D170BD01004FF0000004D0012901D0A1
:104D1000022901D0022070470120704710B580B1F0
:104D2000D0F8B43213B10023C0F8B43209B1C0F8DE
:104D3000B012012180F89C12027000F0BFF8002030
:104D400010BD022010BD10B5D0F8C002FDF7FAFB6F
:104D5000BDE81040FFF7D6BF10B5D0F8C002FDF790
:104D6000CBFBBDE81040FFF7CDBF2DE9F041174662
:104D7000044651B1D4F8B40242691AB194F89C02C5
:104D8000032851D00220BDE8F081D4F894320025E8
:104D900004F11400022B03D0042B3AD0C3B33CE03F
:104DA000D0E903639E4207D9F11AC1608AB239463D
:104DB0002046FFF755FE12E08068B0FBF3F103FBDD
:104DC000110199B9984211D3D4F8981288420DD2A2
:104DD000002211462046FFF743FEC4F898520023F4
:104DE0001A461946204600F0C5F816E0D4F8B40279
:104DF000C16829B194F89C02032801D12046884754
:104E00008021204600F036F92046FFF74BFE04E0F3
:104E1000FFE78021204600F02DF994F8A002012838
:104E200004D184F8A05201E0204690470020AAE770
:104E300070B51546044649B1D4F8B40282691AB176
:104E400094F89C02032830D0022070BDD4F894124C
:104E500004F5AA70032902D005291ED027E0D0E965
:104E600003218A420BD9531AC3600846834200D3F8
:104E700003469AB229462046FFF7EAFD17E0D4F828
:104E8000B402016929B194F89C02032801D120469B
:104E900088472046FFF71EFE09E000200146C4F8BF
:104EA0009402204600F0E6F801E0204690470020FA
:104EB00070BDD0F8C002FDF77EBD000010B50446FD
:104EC0001C481D49C0F8E842C4F8C002016008212E
:104ED00041600221816000218161C1610162FDF7B1
:104EE000B9FE08B1FCF7E1FB0022D4F8C002182398
:104EF000114604F53074FDF7CDFA582300228021C5
:104F00002068FDF7C7FAC023002281212068FDF741
:104F1000C1FA4FF48873002201212068FDF7BAFA24
:104F20004FF48073002282212068FDF7B3FA00203D
:104F300010BD000098310020005C00400A0601F01E
:104F40007F01D0F8C00201EB810100EBC10002D566
:104F500090F82A00704790F86A01704710B51C4617
:104F60001346D0F8C0022246FDF72EFDBDE81040E2
:104F7000FFF7C8BE10B5D0F8C002FDF755FDBDE87B
:104F80001040FFF7BFBE70B5002204464023114613
:104F9000FFF7E4FF40260125C4F864613346002290
:104FA00080212046C4F85851FFF7D8FF6662A561FA
:104FB00084F89C520020C4F894026060C4F8A402F3
:104FC000D4F8B80228B1D4F8B402002142682046CF
:104FD0009047002070BD90F89C12042903D190F8EE
:104FE0009D1280F89C120020704710B590F89C121A
:104FF000032904D1D0F8B412C96901B1884700204F
:1050000010BD01740020704710B5D0F8C002FDF744
:10501000C8FEBDE81040FFF775BE70B5044600F548
:105020002A70054600F04AF80120C4F89402B4F84A
:10503000AE02C4F8980294F8A80210F01F010AD03A
:1050400001290DD0022910D000F08001204600F087
:1050500011F8002070BD2946204600F09EF8F8E7C0
:105060002946204600F0CAF9F3E72946204600F019
:105070001DF9EEE710B5D0F8C002FDF7EEFCBDE873
:105080001040FFF73FBE10B5D0F8C002FDF7A4FEF8
:10509000BDE81040FFF736BE90F89C1280F89D12D4
:1050A000042180F89C120020704710B5D0F8C0028F
:1050B000FDF70CFDBDE81040FFF724BE0A78027032
:1050C0004A7842708A78CB7802EB032242800A79D0
:1050D0004B7902EB032282808A79C97902EB0121A4
:1050E000C18070470246002011B1C2F8B412704767
:1050F0000220704710B5D0F8B42202241AB1126809
:10510000904700B90024204610BD000070B50E463F
:105110001E4D897804462970012931D894F89C02E3
:1051200002280BD003280FD031462046FFF7A0FC01
:1051300029782046BDE87040FFF783BCD9B1032031
:10514000616084F89C0209E071B16068884212D005
:10515000C1B22046FFF775FC297861602046FFF751
:10516000C9FF02280CD006E0022084F89C022046E9
:105170006160FFF766FC2046BDE87040FFF7AABCFF
:1051800031462046BDE87040FFF772BC7801002030
:1051900010B5FFF778FF002010BD2DE9F0410A7827
:1051A000002612F0600208D0202A01D0402A70D1D7
:1051B000D0F8B422926890476DE04B780022012528
:1051C0000A2B66D2DFE803F0405D65576508056588
:1051D0002C29FFF7FFFC5EE004468888D8B9C88810
:1051E000C8B94888802816D200F07F0794F89C023E
:1051F000032810D084F89E7239462046FFF704FF3A
:105200002046FFF767FC1FB1022084F89C0242E0B1
:1052100084F89C523FE020463BE0FFF777FF3AE0FE
:10522000CB88012B35D190F89C32012B04D0022B76
:1052300002D0032B2DD104E08260012200F108018D
:1052400016E00122011D13E090F89C22012A03D0F0
:10525000022A01D0032A1CD1CA88022A19D1C560AA
:10526000D0F8A41209B10321C160022200F10C019F
:10527000FFF723FC0FE0498801290CD1C0F8A452A4
:1052800011E090F89C32012B08D0022B06D0032BA2
:1052900004D0FFF7EDFB3046BDE8F08149880129D5
:1052A000F9D1C0F8A422FFF715FCF4E72DE9F0418D
:1052B0000A46044610780027097910F060030AD0E6
:1052C000202B01D0402B50D1D4F8B4021146836872
:1052D000204698478FE0C0F34110012806D050784F
:1052E000D0B301282AD003283FD107E0D4F8B40274
:1052F000114683682046BDE8F041184794F89C02A7
:10530000022802D0032872D10AE071B380296ED03E
:105310002046FFF7AFFE80212046FFF7ABFE6AE094
:10532000508838B931B1802904D0D08810B92046CE
:10533000FFF7A0FE2046FFF7CDFB5CE094F89C024F
:105340000228E2D0032852D1508898BB4806F1D0F9
:105350002046FFF7F8FCEDE7FFE794F89C020026F3
:10536000022803D0032842D112E040E009B180298D
:105370003DD1080601F07F0000EB800004EB8001C6
:1053800001D5143101E001F5AA7102220E602AE074
:10539000080601F00F0000EB800004EB80000AD546
:1053A000806920B301F07F0000EB800004EB8005F2
:1053B00014350BE01FE0D0F85801C0B101F07F00B8
:1053C00000EB800004EB800505F5AA7541B180294A
:1053D00006D02046FFF7B2FD10B10120286000E0A2
:1053E0002E60022229462046FFF767FB03E01146A4
:1053F0002046FFF73DFB3846BDE8F08170B5054615
:1054000008780C4610F0600003D0202801D0402816
:1054100016D195F89C02012803D0022801D0032858
:105420000ED1207901280BD8D5F8B402826828461D
:105430009047E188014306D12846FFF74BFB02E085
:105440002846FFF715FB002070BD704700487047E5
:10545000782F00202DE9F0470C78002630F8243012
:1054600048F68F121340CA78002A7DD0012A7CD0DA
:10547000022A02D0032A7FD0012648F28002134379
:1054800020F824300D7830F8254048F68F731C4002
:105490002C43144320F825400D7B48F2C00C48F6FD
:1054A000BF744CF280074BF68F79EDB391F8008012
:1054B000C24630F8285048F280181D4045EA0805D9
:1054C00020F82A50B0F8505091F80080054405EBC0
:1054D0000815B1F8088028F00108A5F80084B0F894
:1054E000505091F80080054405EB0815B1F80A808A
:1054F00028F00108A5F808844D78002D0D7830F8C3
:1055000025804FEA48487DD0B8F1000F07DA30F81F
:10551000258008EA030848EA070820F825800F7864
:1055200030F827506D0600E02CE006D530F8275003
:105530001D4045EA0C0520F82750CB780D78012B4B
:1055400030F8253003EA040301D083F0200313432D
:1055500020F825300B7830F8231001EA09011143B7
:1055600020F82310304602E003E008E004E0BDE844
:10557000F08743F4007380E743F4C0637DE743F4AE
:1055800080637AE74D782DB3B0F850500F7805441A
:1055900005EB0715CF8827F00107A5F800740F78F1
:1055A00030F827506D0606D530F827501D4045EAE3
:1055B0000C0520F82750CB78012B06D00B7830F85B
:1055C0002310214081F02001C9E70B7830F8231027
:1055D0002140C4E7B0F850400D78044404EB0514B2
:1055E000CD8825F00105A4F80854B0F850400D7896
:1055F000044404EB05140D6904F20C4475B13E2D0E
:1056000014D800E030E04FEA550CED0701D00CF162
:10561000010C4FF6FF7505EA8C2511E0258825F46D
:10562000F8452580258845F4004509E04FEA551CDA
:10563000ED0601D1ACF1010C4FF4004545EA8C2593
:1056400025800D7830F82540640405D530F82540D4
:105650001C403C4320F825400B7830F8231001EA29
:10566000090181F440517AE7B8F1000F07DA30F808
:10567000258008EA030848EA070820F825800F7803
:1056800030F827506D0606D530F827501D4045EA02
:105690000C0520F827500D7830F8253003EA09036F
:1056A00083F44053134320F825308EE700207047E1
:1056B0002DE9F04391F80C804F780A7848F6BF7CCA
:1056C0004BF68F7948F2800348F2C0054CF2800611
:1056D00048F68F74B8F1000F28D0002F30F82270F0
:1056E0004FEA474748D0002F05DA30F822702740AC
:1056F000374320F822700A7830F822707F0605D5EB
:1057000030F8227027402F4320F822700D7830F8AF
:1057100025202240324320F825200C7830F8242020
:1057200002EA0C021A4320F824201AE07FB130F874
:105730002260760605D530F8226026402E4320F8F8
:1057400022600A7830F8221001EA0C010EE030F8ED
:1057500022506D0405D530F822502540354320F8FD
:1057600022500A7830F8221001EA0901194320F882
:1057700022100020BDE8F083002F05DA30F82270F7
:105780002740374320F822700A7830F822607606E6
:1057900005D530F8226026402E4320F822600E788E
:1057A00030F8262022402A4320F826200C7830F8B2
:1057B000242002EA09021A4320F82420C1E700202D
:1057C000704700207047012120F8401F0021018010
:1057D000818001820846704730F8401F21F43F4124
:1057E0000180002070470020704730B50A7BB2BBB3
:1057F0004A7848F68F7548F28004C2B10B7830F8C9
:105800002320520607D530F823202A4048F2C0054D
:105810002A4320F82320CA78012A20D00A7830F8B9
:10582000221048F6BF73194081F0200114E00A7875
:1058300030F822305B0407D530F822302B404CF290
:1058400080052B4320F822300A7830F822104BF6DE
:105850008F73194081F44051214320F82210002019
:1058600030BD10B54A780978002A48F2800330F834
:10587000212005D048F6BF74224082F0100204E0D7
:105880004BF68F74224082F480521A4320F8212074
:10589000002010BD2DE9F0470E464B78097B0446E9
:1058A0004FF0000948F68F7248F2800A4FF6FF77F2
:1058B0004FF40048012B09D000296ED0F07802285F
:1058C0006CD001286BD00120BDE8F087B569306944
:1058D000854200D90546C9B1F17848F28013022902
:1058E00023D0317834F821001040184324F82100E7
:1058F000306A401B3062307834F8201049067178E5
:105900007ED500297DD001297CD03FE1ABB2F28861
:105910002046716900F0F6FAB4F85000317820445E
:1059200000EB0110A0F80454EAE0316A81426AD920
:10593000317834F821001040184324F82100306AEF
:10594000401B3062307834F82010490671786CD5ED
:1059500011B1012924D02AE0B4F85010214401EB00
:10596000001000F20C404DB13E2D0FD86908EA0737
:1059700000D0491C07EA8121018018E0018821F448
:10598000F8410180018841F40041F5E76909EA0620
:1059900000D1491E48EA8121EEE79CE1BCE126E204
:1059A000B4F85020111901EB0010A0F80C547289C2
:1059B000ABB22046716900F0A5FA706928447061A5
:1059C0003169306A884202D9401B306202E00546E4
:1059D000C6F82090707800287CD1B4F85000317857
:1059E000204400EB011000F204406DB13E2D13D8AD
:1059F0006908EA0700D0491C07EA8121018012E00A
:105A000001E19BE0BBE084E0018821F4F8410180E2
:105A1000018841F40041F1E76909EA0600D1491E15
:105A200048EA8121EAE7328965E011B1012921D0F4
:105A300027E0B4F85010214401EB001000F20440BC
:105A40004DB13E2D0FD86908EA0700D0491C07EA7E
:105A50008121018015E0018821F4F841018001884D
:105A600041F40041F5E76909EA0600D1491E48EA18
:105A70008121EEE7B4F85010214401EB0010A0F8AA
:105A800004543289ABB22046716900F03BFA706968
:105A9000284470613169306A884202D9401B306203
:105AA00002E00546C6F82090707800287ED1B4F850
:105AB00050003178204400EB011000F20C4055B149
:105AC0003E2D10D86908EA0700D0491C07EA812159
:105AD00001800FE072E0018821F4F8410180018823
